:100000000C94AA000C94D4000C94D4000C94D4004A
:100010000C94D4000C94DA020C9400030C94260384
:100020000C944C030C9498010C94D4000C94D400C0
:100030000C94D4000C94D4000C94D4000C94D400F0
:100040000C94D4000C94D4000C94D4000C94D400E0
:100050000C94D4000C9472030C94D4000C94D4002F
:100060000C94D4000C94A1070C94D4000C94D400EC
:100070000C94D4000C94D4000C94D4000C94D400B0
:100080000C947D010C94D4000C94D4000C94D400F6
:100090000C94C9070C94D4000C94D4000C94D40094
:1000A0000C94D4000C94D4000C94D4000C94D40080
:1000B0000C94D4000C94D4000C94D4000C94D40070
:1000C0000C94D4000C94D4000C94D400130647066E
:1000D0005B065B06DF066E067D0690069F06B2068F
:1000E000C106D006DF06F20601071007DB0D180E69
:1000F000440E9D0ED10E220F470F5E0F0C945B062F
:100100000C94DB0D0C947D060C9413060C9447069E
:100110000C94180E0C94D0060C9490060C94F206D5
:100120000C9401070C94C1060C949F060C94220FAA
:100130000C946E060C94470F0C94B2060C94D10EDE
:100140000C945E0F0C94DF060C9410070C949D0E1B
:100150000C94440E11241FBECFEFD1E2DEBFCDBF01
:1001600000E00CBF14BE88E10FB6F89480936000E5
:10017000109260000FBE15E0A0E0B2E0ECE8F2E201
:1001800000E00BBF02C007900D92A430B107D9F771
:1001900025E0A4E0B5E001C01D92A73FB207E1F75A
:1001A0000E946D0F0C9444110C940000EAE7F0E0FB
:1001B000808184608083ACE7B0E08C9180648C9314
:1001C00080818068808380818064808308959C9A88
:1001D00024989B9A27980895E1E9F0E0808189604E
:1001E000808310929500109294008CE294E090939A
:1001F000990080939800E1E7F0E08081826080833D
:100200000895109291000895CF93DF93EC01089A1E
:10021000109A10920705109206050E94EC0080913A
:10022000060590910705029730F4209711F4A498E1
:10023000F6CFA398F4CF1092910010920705109278
:1002400006050E94EC008091060590910705029733
:1002500030F4209711F4A49AF6CFA39AF4CF109219
:10026000910010920705109206050E94EC00809103
:10027000060590910705029730F4209711F4A49891
:10028000F6CFA398F4CF1092910010920705109228
:1002900006051098DF91CF910895CF93DF93EC017D
:1002A000F8948091680081608093680080916B0071
:1002B000209711F4806101C0806880936B0078946E
:1002C00010920505CE010E94040180910505882346
:1002D000E1F3809168008E7F8093680080916B00CD
:1002E000CD2B11F48F7E01C08F7780936B008091AE
:1002F000040590E0DF91CF9108951F920F920FB601
:100300000F9211248F939F9380910605909107057A
:100310000196909307058093060510929500109220
:1003200094009F918F910F900FBE0F901F90189582
:100330001F920F920FB60F9211240BB60F922F93AC
:100340003F934F935F936F937F938F939F93AF935D
:10035000BF93EF93FF931C9902C01F9B03C00E94A1
:10036000EC000FC010929100809106059091070556
:1003700080930405109207051092060581E0809392
:100380000505FF91EF91BF91AF919F918F917F9163
:100390006F915F914F913F912F910F900BBE0F90F6
:1003A0000FBE0F901F90189580E487B94698089566
:1003B00080917A00806480937A0080917A0084FD35
:1003C000FCCF809178002091790090E0922B0895E5
:1003D0008230910569F11CF4019749F093C0833094
:1003E000910509F446C0049709F467C08BC081E405
:1003F00080937C000E94D801833C21E0920720F08A
:1004000020910805216003C0209108052E7F2093CC
:1004100008052091090530910A05232B09F472C0C3
:100420004AE06CE475E00E9407118CE495E040C05E
:1004300082E480937C000E94D801893522E09207F3
:1004400020F020910805226003C0209108052D7F2F
:10045000209308052091090530910A05232B09F402
:1004600051C04AE060E575E00E94071180E595E023
:100470001FC083E480937C000E94D801833C21E06C
:10048000920720F020910805246003C02091080500
:100490002B7F209308052091090530910A05232B15
:1004A00089F14AE068E575E00E94071188E595E06A
:1004B0000E94D20588E092E023C080E480937C0013
:1004C0000E94D801833C21E0920720F0209108058A
:1004D000286003C020910805277F209308052091FC
:1004E000090530910A05232B69F04AE064E575E0BF
:1004F0000E94071184E595E00E94D2058EEF94E0FA
:100500000E94D2058CE58A95F1F700000895469A7D
:1005100089E993E00197F1F700C081E090E00E9443
:10052000E80182E090E00E94E80183E090E00E9410
:10053000E80184E090E00E94E801469808958091E7
:10054000080590E008958DB18F738DB98DB18F7CC2
:100550008DB9F8948CB3806F8CBB8DB3806F8DBBDD
:10056000EAE6F0E0808185658083789487B18F60CA
:1005700087B9409A4198439A4298089582E084BD91
:1005800094E095BD97E497BD80936E0082EA8093D6
:10059000800081E08093810081E090E090938B0067
:1005A00080938A00909389008093880084B180664C
:1005B00084B908951F920F920FB60F9211248F9352
:1005C0009F938091180590911905019690931905B4
:1005D00080931805649B0DC0659907C081E090E089
:1005E00090930C0580930B0504C010920C0510929B
:1005F0000B059F918F910F900FBE0F901F90189534
:100600001F920F920FB60F9211248F939F93809198
:100610001805909119050196909319058093180576
:10062000659B0DC0649905C010920C0510920B05D6
:1006300006C081E090E090930C0580930B059F919C
:100640008F910F900FBE0F901F9018951F920F92D1
:100650000FB60F9211248F939F938091160590915E
:10066000170501969093170580931605669B0DC09C
:10067000679905C010920E0510920D0506C081E025
:1006800090E090930E0580930D059F918F910F90B0
:100690000FBE0F901F9018951F920F920FB60F92DA
:1006A00011248F939F9380911605909117050196C1
:1006B0009093170580931605679B0DC0669907C038
:1006C00081E090E090930E0580930D0504C0109298
:1006D0000E0510920D059F918F910F900FBE0F90F8
:1006E0001F9018951F920F920FB60F9211248F939F
:1006F0009F93809113059091140501969093140592
:1007000080931305809100029091010201979093CC
:10071000010280930002892B49F48AE090E09093D3
:1007200001028093000281E0809315059F918F91D3
:100730000F900FBE0F901F901895439A42980895FE
:10074000409A41980895429A43980895419A409852
:100750000895E7E0E69F9001E79F300D1124309364
:100760000502209304026091160570911705E69F1B
:10077000A001E79F500D112460910D0570910E05A9
:10078000672B19F451954195510910921705109254
:100790001605E0911805F0911905A7E0AE9FB0018C
:1007A000AF9F700D1124E0910B05F0910C05EF2B1C
:1007B00019F4719561957109109219051092180537
:1007C000E0918205F0918305DB01A41BB50BEA0FD4
:1007D000FB1FF0938305E0938205A0918205B09101
:1007E0008305E0910202F0910302EA17FB0754F03F
:1007F000A0918205B0918305F195E195F109AE17BD
:10080000BF0724F4F0938305E0938205E09120056F
:10081000F0912105EF2B71F0E0918205F0918305B5
:10082000C901861B970B8E1B9F0B909369058093C4
:10083000680532C0E0911E05F0911F05EF2B69F0AD
:100840008091820590918305820F931F841B950BE5
:1008500090937D0580937C050CC08130910581F4D7
:100860005695479551954195510950937D05409373
:100870007C05261B370B309369052093680596C0CD
:100880008230910581F4769567957195619571092E
:100890007093690560936805241B350B30937D05C3
:1008A00020937C0583C083309105E1F2843091056B
:1008B00061F38730910559F410926905109268052B
:1008C00084ED9EEF90937D0580937C0556C0883023
:1008D000910539F410927D0510927C0584ED9EEF10
:1008E00037C08930910549F48AE69FEF90937D05E2
:1008F00080937C0586E990E00BC08A30910569F40D
:1009000086E990E090937D0580937C058AE69FEFD1
:10091000909369058093680549C08B30910569F40F
:1009200081EF9FEF90937D0580937C0588E592E0B1
:10093000909369058093680520C08C30910579F407
:1009400088E592E090937D0580937C0581EF9FEF91
:1009500090936905809368050E94A60327C0F9015A
:10096000E61BF70BBF010D9759F410927D0510920D
:100970007C05F0936905E09368050E94A30316C007
:100980008091820590918305681B790B70936905AE
:10099000609368058091820590918305820F931F73
:1009A000841B950B90937D0580937C0580911A059F
:1009B00090911B05892BD1F4209168053091690530
:1009C000C901880F991F820F931F90936905809327
:1009D000680520917C0530917D05C901880F991F1C
:1009E000820F931F90937D0580937C05209168056D
:1009F000309169058091020290910302821793075A
:100A00002CF1409168055091690522273327281B56
:100A1000390B421753077CF0809168059091690566
:100A200097FF10C0809168059091690597FF03C0FA
:100A300091958195910990938900809388000E94F7
:100A4000A6030AC08091680590916905909389007A
:100A5000809388000E94A00320917C0530917D0541
:100A60008091020290910302821793072CF140912A
:100A70007C0550917D0522273327281B390B42170F
:100A800053077CF080917C0590917D0597FF10C005
:100A900080917C0590917D0597FF03C0919581958C
:100AA000910990938B0080938A000E94A3030AC04F
:100AB00080917C0590917D0590938B0080938A00B6
:100AC0000E949D0380911A0590911B05019721F5C5
:100AD00080917C0590917D058B3B9F4F5CF08091D0
:100AE0007C0590917D058634910524F410928B004D
:100AF00010928A0080916805909169058B3B9F4F09
:100B00005CF080916805909169058634910524F424
:100B10001092890010928800089581E090E09093EF
:100B20001B0580931A0520911605309117058091B9
:100B30001805909119052115310579F0009769F094
:100B4000409115054423B9F31092150560E070E05B
:100B500080E090E00E94A903E6CF10921B0510925E
:100B60001A0508959B01AC0160E074E981E190E011
:100B70000E94B210215031093093C5002093C40067
:100B8000E1ECF0E0808188698083E2ECF0E0808134
:100B90008E60808308959091C00095FFFCCF809374
:100BA000C6000895CF93DF93EC018991882319F053
:100BB0000E94CB05FACFDF91CF9108959B01AC0144
:100BC00060E074E981E190E00E94B21021503109A7
:100BD0003093CD002093CC00E9ECF0E08081886177
:100BE0008083EAECF0E080818E60808308959091AC
:100BF000C80095FFFCCF8093CE000895CF93DF937C
:100C0000EC018991882319F00E94F705FACFDF9152
:100C1000CF9108958031910508F00FC1FC01EA5988
:100C2000FF4F0C94D41080911C0590911D050196E6
:100C300090931D0580931C056130710531F0809102
:100C40001E0590911F05019759F481E090E0909363
:100C50001F0580931E056AE070E083E090E014C0F9
:100C60006830710539F08091200590912105019738
:100C700009F04FC081E090E090932105809320051A
:100C80006AE070E084E090E00E94A90342C0109204
:100C90001D0510921C05109221051092200510923E
:100CA0001F0510921E05609106027091070283E0F5
:100CB00090E00C94A90310921D0510921C0510924F
:100CC00021051092200510921F0510921E056091BB
:100CD00006027091070281E090E0EBCF10921D05B3
:100CE00010921C05109221051092200510921F05EC
:100CF00010921E056DE072E0A2C010921D051092C8
:100D00001C05109221051092200510921F051092CB
:100D10001E05609106027091070280E090E0C9CF45
:100D200010921D0510921C051092210510922005AD
:100D300010921F0510921E0564E272E080C01092AE
:100D40001D0510921C05109221051092200510928D
:100D50001F0510921E05609106027091070284E043
:100D600090E0A7CF10921D0510921C05109221054E
:100D70001092200510921F0510921E056EE372E07E
:100D80005EC010921D0510921C0510922105109254
:100D9000200510921F0510921E0565E572E04FC0F8
:100DA00010921D0510921C0510922105109220052D
:100DB00010921F0510921E056DE672E040C0109261
:100DC0001D0510921C05109221051092200510920D
:100DD0001F0510921E05609106027091070282E0C5
:100DE00090E067CF10921D0510921C05109221050E
:100DF0001092200510921F0510921E0568E872E0FF
:100E00001EC010921D0510921C0510922105109213
:100E1000200510921F0510921E0563EA72E00FC0B4
:100E200010921D0510921C051092210510922005AC
:100E300010921F0510921E0508956EEB72E088E473
:100E40000C94170880911C0590911D0508950E942F
:100E5000E70060E072EC81E090E00E94B2050E9441
:100E6000D60060E875E280E090E00E94DE050E9416
:100E7000D4010E94A3020E94BE02549A5C988FE1A2
:100E80008A95F1F75C9A0895CF93DF931F92CDB7BF
:100E9000DEB780912605909127052091C600FC01C0
:100EA000E456FA4F208301969093270580932605F8
:100EB0002A3009F042C0108241E050E06CE975E050
:100EC000CE0101960E94F8108981853429F186347B
:100ED000B9F0813471F564ED72E088E40E9417087E
:100EE000109223051092220528E088E190E00FB6C9
:100EF000F894A895809360000FBE2093600018C0FE
:100F000064EC72E088E40E94170881E090E090931E
:100F10002305809322050DC06CEC72E088E40E94EA
:100F2000170810922305109222050E948D0501C01A
:100F3000FFCF10922705109226050F90DF91CF91D9
:100F400008951F920F920FB60F9211240BB60F92B5
:100F50002F933F934F935F936F937F938F939F93C1
:100F6000AF93BF93EF93FF930E944407FF91EF91DC
:100F7000BF91AF919F918F917F916F915F914F91B1
:100F80003F912F910F900BBE0F900FBE0F901F90AF
:100F900018951F920F920FB60F9211240BB60F9255
:100FA0002F933F934F935F936F937F938F939F9371
:100FB000AF93BF93EF93FF938091C80087FFFCCF5F
:100FC00080912805909129052091CE00FC01E857D9
:100FD000FA4F20830196909329058093280528379E
:100FE00099F488E895E00E94DA10909325058093A3
:100FF000240584E1E8E8F5E0DF011D928A95E9F730
:101000001092290510922805FF91EF91BF91AF91A1
:101010009F918F917F916F915F914F913F912F9110
:101020000F900BBE0F900FBE0F901F901895CF938F
:10103000DF93EB010E94CB05CE010E94D2058EEF1B
:1010400094E0DF91CF910C94D205009791F580E068
:1010500090E00E944D019093450580934405809156
:101060004405909145059093430580934205209156
:101070004205309143058091400590914105281724
:10108000390771F080914205909143054AE061EF84
:1010900075E00E94071161EF75E089E40E9417086E
:1010A00080914205909143059093410580934005BE
:1010B00008950E944D0190933F0580933E058091D5
:1010C0003E0590913F0590933D0580933C0520910E
:1010D0003C0530913D0580913A0590913B052817DC
:1010E000390771F080913C0590913D054AE061EF30
:1010F00075E00E94071161EF75E08AE40E9417080D
:1011000080913C0590913D0590933B0580933A0575
:1011100008950E949F02909349058093480520916D
:10112000480530914905809146059091470528175B
:10113000390771F080914805909149054AE06DEEBC
:1011400075E00E9407116DEE75E086E40C941708B7
:101150000895CF93DF93EC011092140510921305BC
:101160008091130590911405C817D90718F00E94B3
:101170008D05F6CFDF91CF910895809115058823D5
:10118000C1F0109215050E9487020E9489086091A3
:1011900046057091470580914805909149050E9448
:1011A0000A068091480590914905909347058093E0
:1011B000460508950F931F93CF93DF938C01C0E0F2
:1011C000D0E00C171D07ECF0809115058823E1F3A2
:1011D000109215052091160530911705809118057C
:1011E00090911905280F391F36952795C20FD31FE7
:1011F000609106027091070280E090E00E94A903CE
:10120000E0CFDF91CF911F910F9108952AE0AC01BB
:10121000249FC001259F900D1124BC01882777FDD4
:101220008095982F0E9426102FE135E84BEE5DE364
:101230000E948B0F0E94F30FCB010C94DA08CF931E
:10124000DF93EC018091C90080688093C900672B0F
:1012500081F46CEF72E088E40E9417082091240565
:10126000309125052C1B3D0B309339052093380513
:1012700025C066E173E088E40E94170820912405E8
:10128000309125052C0F3D1F3093390520933805EB
:101290002FC08091380590913905281739076CF1D6
:1012A000809115058823A9F3109215056091060217
:1012B0007091070289E090E00E94A9032091240523
:1012C00030912505E6CF8091380590913905821738
:1012D0009307B4F0809115058823A9F310921505A2
:1012E00060910602709107028AE090E00E94A903D3
:1012F0002091240530912505E6CF61E373E002C01B
:1013000060E573E088E40E9417088091C9008F7738
:101310008093C900DF91CF9108950F931F93CF93CE
:10132000DF93EC01009719F465E773E002C066EA09
:1013300073E088E40E94170800E010E08091150532
:101340008823E1F3109215058091160590911705F9
:10135000080F191F6091060270910702209719F477
:1013600089E090E002C08AE090E00E94A903093B76
:101370008BE018071CF3CD2B19F460E773E002C073
:1013800061EA73E088E4DF91CF911F910F910C9493
:101390001708EF92FF920F931F93CF93DF93EC0107
:1013A0007B01009719F468ED73E002C06BE074E014
:1013B00088E40E94170800E010E0E016F106D4F07F
:1013C000809115058823E1F310921505809116058B
:1013D00090911705080F191F60910602709107027E
:1013E000209719F489E090E002C08AE090E00E9422
:1013F000A903E3CFCD2B19F463ED73E002C066E0DF
:1014000074E088E4DF91CF911F910F91FF90EF90EE
:101410000C941708CF93DF93EC01009719F46FE356
:1014200074E002C069E574E088E40E9417088091C6
:1014300015058823E1F3109215050E9487020E948A
:1014400089088091480590914905209791F4892B4E
:1014500049F48091460590914705029719F46AE393
:1014600074E011C0609106027091070289E090E07B
:1014700015C0892B69F48091460590914705049722
:1014800039F464E574E088E4DF91CF910C94170897
:1014900060910602709107028AE090E00E94A90321
:1014A00080914805909149059093470580934605A2
:1014B000BECF809115058823E1F38091150588231F
:1014C000A1F1109215050E9487020E94890880915F
:1014D0004805909149050F9761F0809148059091DA
:1014E0004905079731F080914805909149050E977D
:1014F00061F46FE674E088E40E94170881E090E0F0
:10150000909337058093360508C06091060270916C
:10151000070280E090E00E94A90380914805909125
:101520004905909347058093460508956AE774E05E
:1015300088E40E9417088FED93E10E94DA0881E0A9
:1015400090E00E948D0983EE9BE00E94DA088CE215
:1015500091E00E94A90868EE73E081E090E00E94AB
:10156000C9098CE291E00E94A90883EE9BE00E94E9
:10157000DA088CE291E00E94A90868EE73E081E04D
:1015800090E00E94C9098CE291E00E94A9088BEFCB
:1015900090E10E94DA088CE291E00E94A90868EECE
:1015A00073E081E090E00E94C9098CE291E00E9422
:1015B000A9088AE39CE00E94DA088CE291E00E948C
:1015C000A90868EE73E081E090E00E94C9098CE20E
:1015D00091E00E94A908809115058823E1F31092FB
:1015E00015050E9487020E94890880914805909104
:1015F00049050F9769F08091480590914905079733
:1016000039F080914805909149050E9709F046C040
:1016100080914805909149050797C9F08091480548
:10162000909149050E9791F52BC08091150588235F
:1016300071F0109215050E9487020E94890860913E
:1016400006027091070289E090E00E94A903809150
:101650004805909149050F9741F7E0CF8091150516
:10166000882371F0109215050E9487020E94890854
:1016700060910602709107028AE090E00E94A9033F
:1016800080914805909149050F9741F76FE674E006
:1016900088E40E94170881E090E00AC06091060289
:1016A0007091070280E090E00E94A90380E090E042
:1016B0002091480530914905309347052093460510
:1016C000892B09F488CF83EE9BE00E94DA088CE234
:1016D00091E00E94A90868EE73E081E090E00E942A
:1016E000C9098CE291E00E94A9088AE39CE00E946B
:1016F000DA088CE291E00E94A90868EE73E081E0CC
:1017000090E00E94C9098CE291E00E94A9088BEF49
:1017100090E10E94DA088CE291E00E94A90868EE4C
:1017200073E081E090E00E94C9098CE291E00E94A0
:10173000A9088AE39CE00E94DA088CE291E00E940A
:10174000A90868EE73E081E090E00E94C9098CE28C
:1017500091E00E94A908809115058823E1F3109279
:1017600015050E9487020E94890880914805909182
:1017700049050F9761F080914805909149050797B9
:1017800031F080914805909149050E9741F46FE63C
:1017900074E088E40E94170881E090E00AC060913C
:1017A00006027091070280E090E00E94A90380E0A9
:1017B00090E02091480530914905309347052093EA
:1017C0004605892B41F280E090E00E940A0A81E000
:1017D00090E090933505809334050895EF92FF9241
:1017E0000F931F93CF93DF931F921F92CDB7DEB756
:1017F00062E874E088E40E9417081A8219828FED6B
:1018000093E10E94DA080E94870281E090E00E9442
:101810008D09109249051092480583EB91E00E94D2
:10182000DA08EE24E394F12C809115058823E1F386
:1018300080911505882361F0109215050E9487029A
:101840000E94890860EA70E08CE090E00E94A903A1
:1018500080914805909149050F9791F08091480536
:10186000909149050E9761F0809148059091490546
:101870000C9731F080914805909149050897A1F4A3
:1018800089819A81892B81F467E974E088E40E9458
:10189000170884EF91E00E94DA081092490510922F
:1018A0004805FA82E9823CC080914805909149053B
:1018B0000F9791F080914805909149050E9761F03E
:1018C00080914805909149050C9731F08091480529
:1018D00090914905089721F509811A810130110578
:1018E000F9F483EB91E00E94DA0863EA74E088E49B
:1018F0000E94170869EA74E088E40E94170880E0F3
:1019000090E00E940A0A10933505009334050F9069
:101910000F90DF91CF911F910F91FF90EF9008955D
:10192000809148059091490590934705809346051D
:101930007BCFCF93DF93EC0181E090E00E942508FC
:1019400080913C0590913D058C179D076CF480912A
:1019500015058823A1F1109215056091060270917A
:10196000070282E090E013C080913C0590913D0514
:10197000C817D907A4F480911505882301F11092A6
:101980001505609106027091070281E090E00E94C7
:10199000A90381E090E0DF91CF910C94250880911C
:1019A00015058823E1F310921505609106027091E8
:1019B000070280E090E0DF91CF910C94A903DF91C2
:1019C000CF91089588E790E09093070280930602F4
:1019D00080912A05823009F45AC028F4882361F0E6
:1019E000813079F10895843009F49DC008F475C000
:1019F000853009F4B8C0089580912E0590912F0587
:101A0000892B31F481E090E090932F0580932E058F
:101A100085EA92E20E94DA0884EF91E00E94A90828
:101A200061E070E083E090E00E941F0984EF91E0A4
:101A30000E94A90810922F0510922E0581E0809334
:101A40002A0580912E0590912F05892B59F46AEB78
:101A500074E083E40E94170881E090E090932F05E2
:101A600080932E0581E694E10E94DA0884EF91E0EC
:101A70000E94A90860E070E087E190E00E941F09E1
:101A800010922F0510922E0582E080932A058091F6
:101A90002E0590912F05892B59F46EEB74E083E4A9
:101AA0000E94170881E090E090932F0580932E0507
:101AB0008CE29BE10E94DA0884EF91E00E94A90881
:101AC00060E070E082E390E00E941F0910922F0511
:101AD00010922E0583E080932A0580912E05909127
:101AE0002F05892B59F462EC74E083E40E941708F7
:101AF00081E090E090932F0580932E0584E196E19C
:101B00000E94DA0884EF91E00E94A90864EC79E071
:101B100081E090E00E94C90910922F0510922E05D5
:101B200084E080932A0580912E0590912F05892BC2
:101B300059F466EC74E083E40E94170881E090E0B9
:101B400090932F0580932E0586EC97E10E94DA088A
:101B500084EF91E00E94A90810922F0510922E05A3
:101B600085E080932A0580912E0590912F05892B81
:101B700059F46AEC74E083E40E94170881E090E075
:101B800090932F0580932E050E948D0510922F05AE
:101B900010922E05089580912B0590E088309105D4
:101BA00008F09AC1FC01EA58FF4F80912C059091F2
:101BB0002D050C94D410892B59F46EEC74E083E459
:101BC0000E94170881E090E090932D0580932C05EA
:101BD0008091300590913105892B51F48BEC96E082
:101BE0000E94DA0881E090E09093310580933005FF
:101BF0000E94590A8091360590913705892B99F0FA
:101C000084EF91E00E94A90881E090E00E940A0A16
:101C100084EF91E00E94A90810922D0510922C05E6
:101C200081E080932B0510923705109236050895B8
:101C3000892B59F461ED74E083E40E94170881E078
:101C400090E090932D0580932C050E94BD08809113
:101C5000480590914905019739F080914805909188
:101C60004905039709F038C18CE591E00E94DA0834
:101C7000809115058823E1F30E94BD0810922D057F
:101C800010922C0582E017C1892B59F464ED74E0A1
:101C900083E40E94170881E090E090932D058093E3
:101CA0002C050E94220790934B0580934A05809152
:101CB0004A0590914B054AE063EF75E00E940711D9
:101CC00083EF95E00E94D2058EEF94E00E94D2054A
:101CD0000E94BD0880914A0590914B05449784F07D
:101CE00087ED94E00E94D205609106027091070290
:101CF0008DE090E00E94A90310924B0510924A05D6
:101D00008091480590914905019739F080914805E7
:101D100090914905039709F0DFC082EE94E00E949C
:101D2000D2050E94BD0810924B0510924A051092F0
:101D30002D0510922C0583E0BEC0892B59F46FEE5F
:101D400074E083E40E94170881E090E090932D05F1
:101D500080932C050E94BD0880914805909149050B
:101D60000F9761F08091480590914905079731F0F0
:101D700080914805909149050E9731F488EE93E0E3
:101D80000E94A9080E94960A809134059091350519
:101D9000892B09F4A1C010922D0510922C0584E026
:101DA0008AC0892B59F462EF74E083E40E9417081B
:101DB00081E090E090932D0580932C050E94BD0852
:101DC0008091480590914905039731F0809148052D
:101DD000909149050797E9F4809132059091330578
:101DE000892B09F079C065EF74E083E40E9417083D
:101DF00083EB91E00E94DA0884EB90E09093070275
:101E00008093060281E090E0909333058093320541
:101E1000089580914805909149050F9769F0809148
:101E2000480590914905079739F0809148059091B0
:101E300049050E9709F050C010922D0510922C05FF
:101E400085E039C0892B59F46AEF74E083E40E947D
:101E5000170881E090E090932D0580932C05549A0B
:101E60005C988FE18A95F1F75C9A88EE93E00E9486
:101E7000A9088DEF94E00E94FE0580ED97E00E9496
:101E8000A90810922D0510922C0586E014C0892B0C
:101E900059F461E075E083E40E94170881E090E066
:101EA00090932D0580932C050E94E20C10922D0535
:101EB00010922C0587E080932B050895892B31F42F
:101EC00081E090E090932D0580932C050E948D0574
:101ED00010922D0510922C0508958091C9008068FC
:101EE0008093C9000E9427076AED72E088E40E948F
:101EF00017086EEE72E088E40E94170878948091CB
:101F0000220590912305019719F40E94CB0DF7CF7C
:101F10000E948D05F4CF0CD0EBC0E3D040F0DAD0B6
:101F200030F021F45F3F19F0CCC0511115C1CFC082
:101F3000F0D098F39923C9F35523B1F3951B550BB2
:101F4000BB27AA2762177307840738F09F5F5F4F8C
:101F5000220F331F441FAA1FA9F333D00E2E3AF0CD
:101F6000E0E830D091505040E695001CCAF729D0E7
:101F7000FE2F27D0660F771F881FBB1F2617370736
:101F80004807AB07B0E809F0BB0B802DBF01FF2766
:101F900093585F4F2AF09E3F510568F092C0DCC015
:101FA0005F3FECF3983EDCF3869577956795B795A0
:101FB000F7959F5FC9F7880F911D9695879597F9BB
:101FC0000895E1E0660F771F881FBB1F6217730734
:101FD0008407BA0720F0621B730B840BBA0BEE1F49
:101FE00088F7E095089504D06894B111B5C00895BC
:101FF00098D088F09F5790F0B92F9927B751A0F04B
:10200000D1F0660F771F881F991F1AF0BA95C9F78C
:1020100012C0B13081F09FD0B1E008959CC0672F0D
:10202000782F8827B85F39F0B93FCCF3869577953C
:102030006795B395D9F73EF4909580957095619525
:102040007F4F8F4F9F4F0895E89409C097FB3EF450
:1020500090958095709561957F4F8F4F9F4F9923F5
:10206000A9F0F92F96E9BB279395F6958795779573
:102070006795B795F111F8CFFAF4BB0F11F460FF33
:102080001BC06F5F7F4F8F4F9F4F16C0882311F08B
:1020900096E911C0772321F09EE8872F762F05C09F
:1020A000662371F096E8862F70E060E02AF09A953A
:1020B000660F771F881FDAF7880F9695879597F92F
:1020C000089597F99F6780E870E060E008959FEFBA
:1020D00080EC089500240A941616170618060906BF
:1020E000089500240A94121613061406050608958E
:1020F000092E0394000C11F4882352F0BB0F40F416
:10210000BF2B11F460FF04C06F5F7F4F8F4F9F4F55
:10211000089557FD9058440F551F59F05F3F71F0D7
:102120004795880F97FB991F61F09F3F79F087953E
:102130000895121613061406551FF2CF4695F1DFC7
:1021400008C0161617061806991FF1CF8695710557
:10215000610508940895E894BB2766277727CB018B
:1021600097F90895A1E21A2EAA1BBB1BFD010DC011
:10217000AA1FBB1FEE1FFF1FA217B307E407F50737
:1021800020F0A21BB30BE40BF50B661F771F881F13
:10219000991F1A9469F760957095809590959B01A9
:1021A000AC01BD01CF010895EE0FFF1F0590F49122
:1021B000E02D1994FC0188279927E8942191203279
:1021C000E9F3293010F02E30C8F32B3241F02D32D4
:1021D00039F4689404C00E941211820F911D21915C
:1021E00020532A30C0F31EF4909581959F4F089597
:1021F000FB01DC014150504048F001900D9200205D
:10220000C9F701C01D9241505040E0F70895BB2727
:102210004A3031F4992322F4BDE2909581959F4F85
:102220000C941B117AE0979F902D879F802D910D24
:1022300011240895BB27FB015527AA27880F991F52
:10224000AA1FA41710F0A41B83955051B9F7A05DE5
:10225000AA3308F0A95DA193009779F7B111B19362
:102260001192CB010C943411DC01FC01672F7191A8
:102270007723E1F7329704C07C916D93708362916C
:0C228000AE17BF07C8F30895F894FFCF15
:10228C000A00FF018C008C00202020200043617389
:10229C006520353A2053656E736F72203120616E64
:1022AC00642033004361736520373A2053656E73A5
:1022BC006F7220312C203220616E64203400436117
:1022CC00736520393A2053656E736F72203120612B
:1022DC006E64203400436173652031303A205365BD
:1022EC006E736F72203220616E6420340043617310
:1022FC00652031313A2053656E736F7220312C207A
:10230C003220616E64203400436173652031333AAE
:10231C002053656E736F7220312C203320616E64F4
:10232C00203400436173652031343A2053656E7359
:10233C006F7220322C203320616E6420340048559B
:10234C00483F2100537461727465640053746F705C
:10235C007065640052657365740054616E6B426FF6
:10236C007420696E697469616C697A656400507275
:10237C006573732022537461727422005475726EEB
:10238C00696E67206C65667420736F6D652064657B
:10239C006772656573005475726E696E6720726939
:1023AC0067687420736F6D6520646567726565730B
:1023BC0000446F6E65207475726E696E67206C6573
:1023CC00667420736F6D6520646567726565730054
:1023DC00446F6E65207475726E696E6720726967E2
:1023EC00687420736F6D6520646567726565730032
:1023FC00446F6E65205475726E696E67206C6566ED
:10240C007420393020646567726565732077697450
:10241C006820656E636F6465722076616C75657398
:10242C0000446F6E65205475726E696E6720726918
:10243C00676874203930206465677265657320772E
:10244C0069746820656E636F6465722076616C7563
:10245C00657300446F6E65205475726E696E6720EB
:10246C006C65667420736F6D652064656772656555
:10247C0073207769746820656E636F64657220766B
:10248C00616C75657300446F6E65205475726E696E
:10249C006E6720726967687420736F6D6520646560
:1024AC006772656573207769746820656E636F6405
:1024BC0065722076616C75657300446F6E6520548F
:1024CC0075726E696E67206C65667420746F206C13
:1024DC00696E6500446F6E65205475726E696E6727
:1024EC0020726967687420746F206C696E65004C8B
:1024FC00696E6520666F756E64004F637461676FFB
:10250C006E0046756C6C20636972636C6520667531
:10251C006E6374696F6E006C696E65636F756E7453
:10252C002B2B00627265616B0046756C6C206369C5
:10253C0072636C6520646F6E65005357320053579D
:10254C00330053573400535735005357360053312B
:10255C00005332005333004F6666206C696E650D74
:10256C000A00666F756E64206C696E650D0A005307
:10257C00340053350053352E3100533600570D0AB5
:04258C0000533700C1
:00000001FF
